:020000040800F2
:10000000000400004D0900088D0900088D09000852
:100010008D0900088D0900088D0900080000000006
:100020000000000000000000000000008D09000832
:100030008D090008000000008D0900088D090008E6
:100040008D0900088D0900088D0900088D09000838
:100050008D0900088D0900088D0900088D09000828
:100060008D0900088D0900088D0900088D09000818
:100070008D0900088D0900088D090008CD050008CC
:100080008D0900088D0900088D0900088D090008F8
:100090008D0900088D0900088D0900088D090008E8
:1000A0008D0900088D0900088D0900088D090008D8
:1000B000110200088D0900088D0900088D0900084B
:1000C0008D0900088D0900088D0900088D090008B8
:1000D0000D0600088D0900088D0900088D0900082B
:1000E0008D0900088D0900088D0900088D09000898
:1000F0008D0900088D0900088D0900088D09000888
:100100008D0900088D0900088D0900088D09000877
:100110008D0900088D0900088D0900088D09000867
:100120008D0900088D0900088D0900088D09000857
:100130008D0900088D0900088D0900088D09000847
:100140008D0900088D0900088D0900088D09000837
:100150008D0900088D0900088D0900088D09000827
:100160008D0900088D0900088D0900088D09000817
:100170008D0900088D0900088D09000800000000A5
:080180008D0900088D0900083B
:100188000348044B834202D0034B03B1184770471E
:100198000400002004000020000000000548064B71
:1001A8001B1AD90F01EBA301491002D0034B03B16D
:1001B80018477047040000200400002000000000D9
:1001C80010B5064C237843B9FFF7DAFF044B13B197
:1001D8000448AFF300800123237010BD0400002001
:1001E800000000009009000808B5044B1BB1044941
:1001F8000448AFF30080BDE80840CFE700000000E6
:10020800080000209009000838B54FF08043424CA0
:100218001D69A8070AD52278D1077AD4412222710C
:100228005B6BA360237843F0010323706A070CD546
:1002380023789B0769D442224FF0804322739B6B3B
:100248002361237843F00203237028070CD5237811
:10025800590756D443224FF080432275DB6BA361C4
:10026800237843F004032370EA060CD523781B0790
:1002780011D444224FF0804322771B6C23622378E9
:1002880043F00803237023780F2B0AD04FF08043E4
:10029800ED431D6138BD4FF080431B6C23780F2B55
:1002A800F4D14FF080421D48136823F00103136016
:1002B800002104EBC1020131936892F804C0037174
:1002C80000226CF307024FEA136C6CF30F224FEA1B
:1002D800134C6CF317421B0A63F31F620429026074
:1002E80000F10500E5D10D48142100F033F900F0C4
:1002F800DBF8012384F838304FF08043ED431D616B
:1003080038BD4FF08043DB6BAEE74FF080439B6B0B
:100318009BE75B6B8AE700BF2000002044000020B9
:10032800114A136C43F080531364136843F4803309
:10033800136013689903FCD50C4B536013680A4982
:1003480043F0807313600B689B01FCD549F20243AC
:10035800054A8B60936803F00C03082BFAD1044B11
:10036800044A1A60704700BF00380240085440072A
:1003780000000020007A030A0B4B1A6842F08052F2
:100388001A605A6842F008025A605A6820214FF0F1
:10039800000C10200A435A6083F81CC383F8230317
:1003A80083F82513704700BF00E100E03C4A136B57
:1003B80043F003031363BFF34F8FA2F56052394B29
:1003C800116821F0FF011160116841F0AA01116064
:1003D800D16821F0FF01D160116A21F00F0141F0CD
:1003E80001011162116A21F0F00141F0100111625E
:1003F800116A21F4706141F480711162116A21F46B
:10040800704141F4805111621A6822F003021A60A7
:100418001A6842F001021A605A6822F001025A6012
:100428009A6822F003029A609A6842F002029A607F
:10043800DA684FF4803022F00302DA6098611A68B3
:1004480022F07F421A601A6842F02A421A605A68FB
:1004580022F470425A609A6822F07F429A609A6841
:1004680042F07F429A60DA6822F07F42DA605A6A84
:1004780022F4702242F4A0225A625A6A22F47002CC
:1004880042F4A0025A625A6A22F0706242F0A062F4
:100498005A625A6A22F0704242F0A0425A62704789
:1004A8000038024000040240014B01229A61704763
:1004B80000040240024B4FF480329A61704700BF3B
:1004C800000402401C4B1A6C42F4804230B41A6497
:1004D8001A6B42F400121A63BFF34F8FA3F500336F
:1004E8000021164A19602220596019605860136F5C
:1004F80023F001031367136F13F00103FBD1104CB2
:1005080010493D25D56094670F4CD467142454676F
:100518001020C2F884300D4C0D4D15674FF4004380
:1005280081F80F030B6081F824034860236843F0C7
:100538004003236030BC704700380240006002402E
:100548000C38004000E100E05C000020003800406A
:100558005404010070B50C46142C144D264628BFCF
:10056800142601463246284600F0B2F8132C05D866
:10057800C6F114020021A81900F058F80C4A01230A
:100588002B75136F23F001031367136FDB07FCD47C
:10059800084B14213D20D060D5675167D9689B6806
:1005A800136F43F00103136770BD00BF5C000020A8
:1005B8000060024000380040014B187D704700BFC2
:1005C8005C0000200C4B59688A060CD520200B4A89
:1005D800D86093689807FCD5084A936813F080039D
:1005E800FBD1074A13750B0705D50349044B0820AF
:1005F8000022C8601A757047006002400038004049
:100608005C000020084A9368590644BFD168926884
:10061800DB0608D5044B1A6822F040021A601A68F3
:1006280042F040021A60704700380040830730B536
:1006380047D0541E002A3ED0CAB2034601E0013C0E
:1006480039D303F8012B9D07F9D1032C2CD9CDB24E
:1006580005EB05250F2C05EB054535D9A4F110024E
:1006680022F00F0C03F1100EE6444FEA121C1A4652
:10067800C2E90055C2E9025510327245F8D10CF1B1
:10068800010214F00C0F03EB021204F00F0C13D04C
:10069800ACF1040323F003030433134442F8045B6E
:1006A8009342FBD10CF003042CB1C9B21C4403F8EB
:1006B800011BA342FBD130BD64461346002CF4D184
:1006C800F9E703461446C0E71A46A446E0E700BF28
:1006D800844641EA000313F003036DD1403A41D345
:1006E80051F8043B40F8043B51F8043B40F8043B04
:1006F80051F8043B40F8043B51F8043B40F8043BF4
:1007080051F8043B40F8043B51F8043B40F8043BE3
:1007180051F8043B40F8043B51F8043B40F8043BD3
:1007280051F8043B40F8043B51F8043B40F8043BC3
:1007380051F8043B40F8043B51F8043B40F8043BB3
:1007480051F8043B40F8043B51F8043B40F8043BA3
:1007580051F8043B40F8043B51F8043B40F8043B93
:10076800403ABDD2303211D351F8043B40F8043B33
:1007780051F8043B40F8043B51F8043B40F8043B73
:1007880051F8043B40F8043B103AEDD20C3205D343
:1007980051F8043B40F8043B043AF9D2043208D03B
:1007A800D2071CBF11F8013B00F8013B01D30B88AD
:1007B80003806046704700BF082A13D38B078DD08B
:1007C80010F003038AD0C3F10403D21ADB071CBF5D
:1007D80011F8013B00F8013B80D331F8023B20F8C7
:1007E800023B7BE7043AD9D3013A11F8013B00F800
:1007F800013BF9D20B7803704B7843708B78837088
:100808006046704770B5FFF78BFDFFF7B5FDFFF742
:10081800CDFD00F03FF8FFF755FEFFF74BFE184CF3
:100828000026267084F8386000F066F894F83830AE
:100838003BB9144B01E0013B03D094F83820002A5F
:10084800F9D094F8383053B900F072F8FFF732FE57
:100858000D4B00BF1A46013B002AFAD1E1E70B4DC8
:1008680001E0013D03D0FFF7A7FE0028F9D1FFF70B
:1008780021FE074B00BF1A46013B002AFAD1D0E7F8
:100888002000002080DE80023F9002000159000114
:100898003FD10C00164A136C43F0010310B41364E3
:1008A800BFF34F8F4FF08043002253241A605A60E1
:1008B8009A60DA609A61DA611A625A621A619C6215
:1008C8004FF0FF34DC620B4940F2011041F2111481
:1008D8009861D8611C624FF080501E24DC6081F85A
:1008E8001C230860012159615DF8044B1A617047A7
:1008F8000038024000E100E010B40A490A4C0B48F5
:100908004FF0804200230B604B608B60CB602370FC
:1009180003705362136113685DF8044B43F00103DD
:1009280013607047740000207200002071000020DE
:100938004FF0804300211A6822F001021A60196101
:10094800704700BF0A480B490B4A03E050F8043BC4
:1009580041F8043B9142F9DB084809494FF000028D
:1009680001E040F8042B8842FBDBFFF74BFFFEE772
:10097800B80900080000002004000020040000203E
:1009880084000020FFF7FEBFF8B500BFF8BC08BC24
:100998009E467047F8B500BFF8BC08BC9E46704735
:0809A80030FDFF7F010000009B
:0409B000F101000849
:0409B400C90100086D
:0409B800007A030AB4
:040000050800094D99
:00000001FF
